:1000000020C02FC02EC02DC02CC001C12AC029C0C5
:1000100028C027C026C025C024C023C022C001029A
:100020000000040001020408102002020202020281
:100030000000000036000000000038000000000052
:10004000370011241FBECFE5D2E0DEBFCDBF20E0D8
:10005000A0E6B0E001C01D92AA36B207E1F737D2A0
:1000600052C2CECFCF93DF931F92CDB7DEB7609150
:10007000600080E090E0698330D26981681719F0F0
:1000800080E090E032D26AE070E080E090E00F9093
:10009000DF91CF912CC180E090E01FD2873028F013
:1000A00060E080E090E021D280E008950F931F93FC
:1000B000CF93DF93C82F61E080E0B1D16AE070E0B8
:1000C00080E090E014D160E080E0A9D100E010E091
:1000D000D0E00C171D0774F461E081E0A0D16AE064
:1000E00070E080E090E003D160E081E098D10F5FA4
:1000F0001F4FEFCFDF91CF911F910F910895CF93B5
:1001000060E082E050D162E083E04DD162E084E0C3
:100110004AD161E080E047D161E081E044D160E014
:1001200080E07DD1C0E08C2FC1DF68EC70E080E022
:1001300090E0DDD0CF5FCA30B1F7ADDF80936000D3
:10014000CF91B4CFCF93C82F9AD1892B51F462E3CA
:1001500070E080E090E0CBD08C2F91D121E0892B12
:1001600009F420E0822FCF91089583E0EBDF88230C
:10017000E9F080916000863018F48F5F8093600012
:1001800080916000811103C082E08093600082E072
:1001900076D1892B11F0109260008091600086DF8B
:1001A0006AEF70E080E090E0A2D05CDF84E0CADF1C
:1001B0008823E9F080916000823018F081508093AC
:1001C000600080916000811103C081E08093600035
:1001D00082E055D1892B11F010926000809160006F
:1001E00065DF6AEF70E080E090E081D03BCF08955A
:1001F00080B7807F80BF80B7806880BF8CB5806407
:100200008CBD8FEF8DBD80B7876080BF08951F9232
:100210000F920FB60F9211242F933F938F939F93BA
:10022000AF93BF938091620090916300A0916400AE
:10023000B09165003091610026E0230F2D3730F03A
:1002400029E8230F0396A11DB11D03C00296A11D2D
:10025000B11D209361008093620090936300A0938E
:100260006400B09365008091660090916700A09152
:100270006800B09169000196A11DB11D80936600D0
:1002800090936700A0936800B0936900BF91AF910D
:100290009F918F913F912F910F900FBE0F901F90C4
:1002A00018953FB7F8948091660090916700A091EF
:1002B0006800B091690022B708B601FE05C02F3F63
:1002C00019F00196A11DB11D3FBFBA2FA92F982F7C
:1002D0008827820F911DA11DB11DBC01CD0143E0F6
:1002E000660F771F881F991F4A95D1F70895CF92FF
:1002F000DF92EF92FF92CF93DF936B017C01D1DF0E
:10030000EB01C114D104E104F10471F0CADF6C1BEC
:100310007D0B683E7340A8F381E0C81AD108E1085C
:10032000F108C851DC4FEDCFDF91CF91FF90EF90F6
:10033000DF90CF9008958AB582608ABD8AB58160CA
:100340008ABD83B7887F836083BF789489B78260D2
:1003500089BF4EDF86B18877866886B9379A089557
:10036000813031F48AB58F778ABD8AB58F7B07C01B
:10037000823039F48AB58F7D8ABD8AB58F7E8ABD79
:100380000895833039F480B78F7D80BF80B78F7E2A
:1003900080BF0895843031F48CB58F7D8CBD8CB5D1
:1003A0008F7E8CBD0895CF93DF9390E0FC01EC5DD0
:1003B000FF4F2491FC01E65DFF4F8491882361F19A
:1003C00090E0880F991FFC01E45CFF4FC591D49128
:1003D000FC01EA5CFF4FA591B491611109C09FB780
:1003E000F8948881209582238883EC912E230BC07A
:1003F000623061F49FB7F8943881822F809583230F
:100400008883EC912E2B2C939FBF06C08FB7F89456
:10041000E8812E2B28838FBFDF91CF9108951F9302
:10042000CF93DF93282F30E0F901E25EFF4F8491F4
:10043000F901EC5DFF4FD491F901E65DFF4FC491E6
:10044000CC23C9F0162F81118BDFEC2FF0E0EE0FDB
:10045000FF1FEA5CFF4FA591B4918FB7111106C041
:10046000F8949C91ED2FE095E92303C0F894EC916A
:10047000ED2BEC938FBFDF91CF911F910895CF9318
:10048000DF93282F30E0F901E25EFF4F8491F901FC
:10049000EC5DFF4FD491F901E65DFF4FC491CC2391
:1004A00089F081115DDFEC2FF0E0EE0FFF1FE05DC2
:1004B000FF4FA591B491EC91ED2381E090E021F400
:1004C00080E002C080E090E0DF91CF91089581B795
:1004D00081BF31DF14DE49DEFECFE199FECF9FBB45
:1004E0008EBBE09A99278DB30895262FE199FECF10
:1004F0001CBA9FBB8EBB2DBB0FB6F894E29AE19A53
:0A0500000FBE01960895F894FFCF96
:00000001FF
