:100000000EC01DC01CC01BC01AC0C7C018C017C07E
:1000100016C015C014C013C012C011C010C01124E6
:100020001FBECFE5D2E0DEBFCDBF20E0A0E6B0E04E
:1000300001C01D92AA36B207E1F758D173C1E0CFD3
:10004000C09AC09890E0981721F0C19AC1989F5F1C
:10005000FACF0895CF93C82F26B330E0082E02C000
:10006000359527950A94E2F720FD0FC062E370E012
:1000700080E090E001D186B390E002C0959587952D
:10008000CA95E2F78170992702C080E090E0CF9195
:100090000895CF938CE188BBB89AB99AC09880E054
:1000A000CFDF6EE571E080E090E0E6D0C1E08C2F1C
:1000B000C7DF64EF71E080E090E0DED0CF5FCA3050
:1000C000B1F780E0BDDF64EF71E080E090E0D4D074
:1000D00080E090E011D18093600080916000CF912A
:1000E000AFCF83E0B7DF892BF1F080916000811101
:1000F00002C082E03FC080916000882321F080919F
:1001000060008930A0F1B29B1092600060916000A5
:1001100080E090E0F9D08091600092DF6FEA70E0BB
:1001200080E090E0A9D084E095DF892B31F18091C7
:100130006000823028F080916000815080936000E0
:1001400080916000811103C081E080936000B29BC8
:10015000109260006091600080E090E0D5D08091C6
:1001600060006EDF6FEA70E080E090E085C0809113
:1001700060008F5F80936000C6CF089580B7807F56
:1001800080BF80B7806880BF8CB580648CBD8FEFE6
:100190008DBD80B7846080BF08951F920F920FB607
:1001A0000F9211242F933F938F939F93AF93BF93FD
:1001B0008091620090916300A0916400B09165000D
:1001C0003091610026E0230F2D3730F029E8230F0E
:1001D0000396A11DB11D03C00296A11DB11D209360
:1001E00061008093620090936300A0936400B093D9
:1001F00065008091660090916700A0916800B091C1
:1002000069000196A11DB11D80936600909367005F
:10021000A0936800B0936900BF91AF919F918F91B7
:100220003F912F910F900FBE0F901F9018953FB7E1
:10023000F8948091660090916700A0916800B09159
:10024000690022B708B601FE05C02F3F19F00196DC
:10025000A11DB11D3FBF6627782F892F9A2F620FEE
:10026000711D811D911D43E0660F771F881F991F27
:100270004A95D1F708950895CF92DF92EF92FF92B9
:10028000CF93DF936B017C01D2DFEB01C114D1046A
:10029000E104F10479F0EFDFCADF6C1B7D0B683EEF
:1002A0007340A0F381E0C81AD108E108F108C851F1
:1002B000DC4FF2CFDF91CF91FF90EF90DF90CF90A6
:1002C00008958AB582608ABD8AB581608ABD83B788
:1002D000887F826083BF789489B7826089BF4EDF50
:1002E00086B18877836886B9379A089581B781BFC8
:1002F000E8DFCFDEF6DEFECFE199FECF9FBB8EBBFF
:10030000E09A99278DB30895262FE199FECF1CBA64
:100310009FBB8EBB2DBB0FB6F894E29AE19A0FBE3D
:0803200001960895F894FFCF47
:00000001FF
